{
  "_format": "hh-sol-artifact-1",
  "contractName": "Arbitrage",
  "sourceName": "contracts/arbitrage.sol",
  "abi": [
    {
      "inputs": [],
      "stateMutability": "nonpayable",
      "type": "constructor"
    },
    {
      "stateMutability": "payable",
      "type": "fallback"
    },
    {
      "inputs": [
        {
          "internalType": "address",
          "name": "_router1",
          "type": "address"
        },
        {
          "internalType": "address",
          "name": "_router2",
          "type": "address"
        },
        {
          "internalType": "address",
          "name": "_token1",
          "type": "address"
        },
        {
          "internalType": "address",
          "name": "_token2",
          "type": "address"
        },
        {
          "internalType": "uint256",
          "name": "_amount",
          "type": "uint256"
        }
      ],
      "name": "estimateTradeReturn",
      "outputs": [
        {
          "internalType": "uint256",
          "name": "",
          "type": "uint256"
        }
      ],
      "stateMutability": "view",
      "type": "function"
    },
    {
      "inputs": [
        {
          "internalType": "address",
          "name": "_router1",
          "type": "address"
        },
        {
          "internalType": "address",
          "name": "_router2",
          "type": "address"
        },
        {
          "internalType": "address",
          "name": "_token1",
          "type": "address"
        },
        {
          "internalType": "address",
          "name": "_token2",
          "type": "address"
        },
        {
          "internalType": "uint256",
          "name": "_amount",
          "type": "uint256"
        }
      ],
      "name": "executeTrade",
      "outputs": [],
      "stateMutability": "nonpayable",
      "type": "function"
    },
    {
      "inputs": [
        {
          "internalType": "address",
          "name": "_tokenContractAddress",
          "type": "address"
        }
      ],
      "name": "getBalance",
      "outputs": [
        {
          "internalType": "uint256",
          "name": "",
          "type": "uint256"
        }
      ],
      "stateMutability": "view",
      "type": "function"
    },
    {
      "inputs": [],
      "name": "owner",
      "outputs": [
        {
          "internalType": "address",
          "name": "",
          "type": "address"
        }
      ],
      "stateMutability": "view",
      "type": "function"
    },
    {
      "inputs": [],
      "name": "withdrawETH",
      "outputs": [],
      "stateMutability": "nonpayable",
      "type": "function"
    },
    {
      "inputs": [
        {
          "internalType": "address",
          "name": "_tokenAddress",
          "type": "address"
        }
      ],
      "name": "withdrawToken",
      "outputs": [],
      "stateMutability": "nonpayable",
      "type": "function"
    },
    {
      "stateMutability": "payable",
      "type": "receive"
    }
  ],
  "bytecode": "0x608060405234801561001057600080fd5b50336000806101000a81548173ffffffffffffffffffffffffffffffffffffffff021916908373ffffffffffffffffffffffffffffffffffffffff16021790555061127f806100606000396000f3fe6080604052600436106100595760003560e01c806389476069146100625780638da5cb5b1461008b578063be96622d146100b6578063dded0692146100f3578063e086e5ec1461011c578063f8b2cb4f1461013357610060565b3661006057005b005b34801561006e57600080fd5b5061008960048036038101906100849190610a6b565b610170565b005b34801561009757600080fd5b506100a0610362565b6040516100ad9190610aa7565b60405180910390f35b3480156100c257600080fd5b506100dd60048036038101906100d89190610af8565b610386565b6040516100ea9190610b82565b60405180910390f35b3480156100ff57600080fd5b5061011a60048036038101906101159190610af8565b6104e7565b005b34801561012857600080fd5b50610131610613565b005b34801561013f57600080fd5b5061015a60048036038101906101559190610a6b565b610753565b6040516101679190610b82565b60405180910390f35b60008054906101000a900473ffffffffffffffffffffffffffffffffffffffff1673ffffffffffffffffffffffffffffffffffffffff163373ffffffffffffffffffffffffffffffffffffffff16146101fe576040517f08c379a00000000000000000000000000000000000000000000000000000000081526004016101f590610bfa565b60405180910390fd5b60008173ffffffffffffffffffffffffffffffffffffffff166370a08231306040518263ffffffff1660e01b81526004016102399190610aa7565b602060405180830381865afa158015610256573d6000803e3d6000fd5b505050506040513d601f19601f8201168201806040525081019061027a9190610c2f565b9050600081116102bf576040517f08c379a00000000000000000000000000000000000000000000000000000000081526004016102b690610ca8565b60405180910390fd5b8173ffffffffffffffffffffffffffffffffffffffff1663a9059cbb60008054906101000a900473ffffffffffffffffffffffffffffffffffffffff16836040518363ffffffff1660e01b815260040161031a929190610cc8565b6020604051808303816000875af1158015610339573d6000803e3d6000fd5b505050506040513d601f19601f8201168201806040525081019061035d9190610d29565b505050565b60008054906101000a900473ffffffffffffffffffffffffffffffffffffffff1681565b6000808673ffffffffffffffffffffffffffffffffffffffff1663d06ca61f846103b088886107d6565b6040518363ffffffff1660e01b81526004016103cd929190610e14565b600060405180830381865afa1580156103ea573d6000803e3d6000fd5b505050506040513d6000823e3d601f19601f820116820180604052508101906104139190610f9d565b60018151811061042657610425610fe6565b5b6020026020010151905060008673ffffffffffffffffffffffffffffffffffffffff1663d06ca61f83610459888a6107d6565b6040518363ffffffff1660e01b8152600401610476929190610e14565b600060405180830381865afa158015610493573d6000803e3d6000fd5b505050506040513d6000823e3d601f19601f820116820180604052508101906104bc9190610f9d565b6001815181106104cf576104ce610fe6565b5b60200260200101519050809250505095945050505050565b60008054906101000a900473ffffffffffffffffffffffffffffffffffffffff1673ffffffffffffffffffffffffffffffffffffffff163373ffffffffffffffffffffffffffffffffffffffff1614610575576040517f08c379a000000000000000000000000000000000000000000000000000000000815260040161056c90610bfa565b60405180910390fd5b600061058084610753565b9050600061058d84610753565b905061059b878686866108ce565b6000816105a786610753565b6105b19190611044565b90506105bf878688846108ce565b826105c987610753565b11610609576040517f08c379a0000000000000000000000000000000000000000000000000000000008152600401610600906110ea565b60405180910390fd5b5050505050505050565b60008054906101000a900473ffffffffffffffffffffffffffffffffffffffff1673ffffffffffffffffffffffffffffffffffffffff163373ffffffffffffffffffffffffffffffffffffffff16146106a1576040517f08c379a000000000000000000000000000000000000000000000000000000000815260040161069890610bfa565b60405180910390fd5b6000479050600081116106e9576040517f08c379a00000000000000000000000000000000000000000000000000000000081526004016106e090611156565b60405180910390fd5b60008054906101000a900473ffffffffffffffffffffffffffffffffffffffff1673ffffffffffffffffffffffffffffffffffffffff166108fc829081150290604051600060405180830381858888f1935050505015801561074f573d6000803e3d6000fd5b5050565b60008173ffffffffffffffffffffffffffffffffffffffff166370a08231306040518263ffffffff1660e01b815260040161078e9190610aa7565b602060405180830381865afa1580156107ab573d6000803e3d6000fd5b505050506040513d601f19601f820116820180604052508101906107cf9190610c2f565b9050919050565b60606000600267ffffffffffffffff8111156107f5576107f4610e5a565b5b6040519080825280602002602001820160405280156108235781602001602082028036833780820191505090505b509050838160008151811061083b5761083a610fe6565b5b602002602001019073ffffffffffffffffffffffffffffffffffffffff16908173ffffffffffffffffffffffffffffffffffffffff1681525050828160018151811061088a57610889610fe6565b5b602002602001019073ffffffffffffffffffffffffffffffffffffffff16908173ffffffffffffffffffffffffffffffffffffffff16815250508091505092915050565b8273ffffffffffffffffffffffffffffffffffffffff1663095ea7b385836040518363ffffffff1660e01b8152600401610909929190610cc8565b6020604051808303816000875af1158015610928573d6000803e3d6000fd5b505050506040513d601f19601f8201168201806040525081019061094c9190610d29565b50600061095984846107d6565b90508473ffffffffffffffffffffffffffffffffffffffff166338ed17398360018430603c426109899190611176565b6040518663ffffffff1660e01b81526004016109a99594939291906111ef565b6000604051808303816000875af11580156109c8573d6000803e3d6000fd5b505050506040513d6000823e3d601f19601f820116820180604052508101906109f19190610f9d565b505050505050565b6000604051905090565b600080fd5b600080fd5b600073ffffffffffffffffffffffffffffffffffffffff82169050919050565b6000610a3882610a0d565b9050919050565b610a4881610a2d565b8114610a5357600080fd5b50565b600081359050610a6581610a3f565b92915050565b600060208284031215610a8157610a80610a03565b5b6000610a8f84828501610a56565b91505092915050565b610aa181610a2d565b82525050565b6000602082019050610abc6000830184610a98565b92915050565b6000819050919050565b610ad581610ac2565b8114610ae057600080fd5b50565b600081359050610af281610acc565b92915050565b600080600080600060a08688031215610b1457610b13610a03565b5b6000610b2288828901610a56565b9550506020610b3388828901610a56565b9450506040610b4488828901610a56565b9350506060610b5588828901610a56565b9250506080610b6688828901610ae3565b9150509295509295909350565b610b7c81610ac2565b82525050565b6000602082019050610b976000830184610b73565b92915050565b600082825260208201905092915050565b7f4e6f742074686520636f6e7472616374206f776e657200000000000000000000600082015250565b6000610be4601683610b9d565b9150610bef82610bae565b602082019050919050565b60006020820190508181036000830152610c1381610bd7565b9050919050565b600081519050610c2981610acc565b92915050565b600060208284031215610c4557610c44610a03565b5b6000610c5384828501610c1a565b91505092915050565b7f4e6f20746f6b656e7320746f2077697468647261770000000000000000000000600082015250565b6000610c92601583610b9d565b9150610c9d82610c5c565b602082019050919050565b60006020820190508181036000830152610cc181610c85565b9050919050565b6000604082019050610cdd6000830185610a98565b610cea6020830184610b73565b9392505050565b60008115159050919050565b610d0681610cf1565b8114610d1157600080fd5b50565b600081519050610d2381610cfd565b92915050565b600060208284031215610d3f57610d3e610a03565b5b6000610d4d84828501610d14565b91505092915050565b600081519050919050565b600082825260208201905092915050565b6000819050602082019050919050565b610d8b81610a2d565b82525050565b6000610d9d8383610d82565b60208301905092915050565b6000602082019050919050565b6000610dc182610d56565b610dcb8185610d61565b9350610dd683610d72565b8060005b83811015610e07578151610dee8882610d91565b9750610df983610da9565b925050600181019050610dda565b5085935050505092915050565b6000604082019050610e296000830185610b73565b8181036020830152610e3b8184610db6565b90509392505050565b600080fd5b6000601f19601f8301169050919050565b7f4e487b7100000000000000000000000000000000000000000000000000000000600052604160045260246000fd5b610e9282610e49565b810181811067ffffffffffffffff82111715610eb157610eb0610e5a565b5b80604052505050565b6000610ec46109f9565b9050610ed08282610e89565b919050565b600067ffffffffffffffff821115610ef057610eef610e5a565b5b602082029050602081019050919050565b600080fd5b6000610f19610f1484610ed5565b610eba565b90508083825260208201905060208402830185811115610f3c57610f3b610f01565b5b835b81811015610f655780610f518882610c1a565b845260208401935050602081019050610f3e565b5050509392505050565b600082601f830112610f8457610f83610e44565b5b8151610f94848260208601610f06565b91505092915050565b600060208284031215610fb357610fb2610a03565b5b600082015167ffffffffffffffff811115610fd157610fd0610a08565b5b610fdd84828501610f6f565b91505092915050565b7f4e487b7100000000000000000000000000000000000000000000000000000000600052603260045260246000fd5b7f4e487b7100000000000000000000000000000000000000000000000000000000600052601160045260246000fd5b600061104f82610ac2565b915061105a83610ac2565b925082820390508181111561107257611071611015565b5b92915050565b7f54726164652072657665727465642e204661696c656420746f2070726f66697460008201527f2e00000000000000000000000000000000000000000000000000000000000000602082015250565b60006110d4602183610b9d565b91506110df82611078565b604082019050919050565b60006020820190508181036000830152611103816110c7565b9050919050565b7f4e6f2045544820746f2077697468647261770000000000000000000000000000600082015250565b6000611140601283610b9d565b915061114b8261110a565b602082019050919050565b6000602082019050818103600083015261116f81611133565b9050919050565b600061118182610ac2565b915061118c83610ac2565b92508282019050808211156111a4576111a3611015565b5b92915050565b6000819050919050565b6000819050919050565b60006111d96111d46111cf846111aa565b6111b4565b610ac2565b9050919050565b6111e9816111be565b82525050565b600060a0820190506112046000830188610b73565b61121160208301876111e0565b81810360408301526112238186610db6565b90506112326060830185610a98565b61123f6080830184610b73565b969550505050505056fea264697066735822122029c8db212d73666ea5d37944994b011ab938c39fc803631568b413860ca871c064736f6c63430008180033",
  "linkReferences": {},
  "deployedLinkReferences": {}
}